:100000000C943E000C94BB000C945B000C945B00C1
:100010000C945B000C945B000C945B000C945B00F4
:100020000C945B000C945B000C945B000C945B00E4
:100030000C945B000C945B000C945B000C945B00D4
:100040000C945B000C945B000C945B000C945B00C4
:100050000C945D000C945B000C945B000C945B00B2
:100060000C945B000C945B000C945B000C945B00A4
:100070000C945B000C945B000C945B0011241FBE7D
:10008000CFEFD0E1DEBFCDBF11E0A0E0B1E0ECECFE
:10009000F2E002C005900D92A231B107D9F711E04C
:1000A000A2E1B1E001C01D92A331B107E1F70E94C6
:1000B000F1000C9464010C9400001F920F920FB693
:1000C0000F9211248F938091C6008093110181E0DB
:1000D000809312018F910F900FBE0F901F90189573
:1000E0008053682F772767FD7095872F972F2DE016
:1000F00036E649E150E00E940801615A7C4081499E
:10010000934C2FEF3FE740E050E00E942701862FFD
:10011000805D282F332727FD3095932F0895109267
:10012000C5008DE48093C40088E98093C10086E017
:100130008093C20008958AB184708AB95A9AE9E618
:10014000F0E0108282E0808381E08DBB0895909181
:10015000C00095FFFCCF8093C6000895CF93DF9336
:10016000C82FD92F02C00E94A70089918823D9F7F0
:10017000DF91CF9108951F920F920FB60F92112425
:100180002F933F934F935F936F937F938F939F939F
:10019000AF93BF93EF93FF938FE799EAA3E081506A
:1001A0009040A040E1F700C000001A9903C08BE224
:1001B0000E94A700FF91EF91BF91AF919F918F9106
:1001C0007F916F915F914F913F912F910F900FBE53
:1001D0000F901F9018950E948F000E949B007894AA
:1001E00008950E94EB0080E091E00E94AE008091B3
:1001F00012018823E1F3809111010E947000809325
:100200001101809111010E94A70010921201EFCFFD
:10021000629FD001739FF001829FE00DF11D649FEA
:10022000E00DF11D929FF00D839FF00D749FF00D76
:10023000659FF00D9927729FB00DE11DF91F639F17
:10024000B00DE11DF91FBD01CF011124089597FBE9
:10025000092E05260ED057FD04D014D00AD0001C5C
:1002600038F450954095309521953F4F4F4F5F4F53
:100270000895F6F790958095709561957F4F8F4F13
:100280009F4F0895A1E21A2EAA1BBB1BFD010DC0B2
:10029000AA1FBB1FEE1FFF1FA217B307E407F50736
:1002A00020F0A21BB30BE40BF50B661F771F881F12
:1002B000991F1A9469F760957095809590959B01A8
:0C02C000AC01BD01CF010895F894FFCF00
:1002CC00696E697469616C697365642E2E2E290AD6
:0202DC000063BD
:00000001FF
